S00C000050574D322E73726563F2
S113000045C0000053C0000051C000004FC00000B4
S11300104DC000004CC0000062C0000078C0000069
S113002045C0000043C0000041C000003FC00000C4
S11300303DC000003BC000007EC0000037C000008F
S113004035C0000033C0000031C000002FC00000E4
S11300502DC000002BC0000029C0000027C00000F4
S113006025C0000023C0000021C000001FC0000004
S11300701DC000001BC0000019C0000017C0000014
S113008015C0000013C0000011C0000011241FBEE1
S1130090CFEFD0E1DEBFCDBF21E0A0E0B1E001C0F1
S11300A01D92A830B207E1F7CAD03FC1A9CF1F9271
S11300B00F920FB60F9211248F939F9381E090E0DB
S11300C090930501809304011092030110920201A0
S11300D09F918F910F900FBE0F901F9018951F92B4
S11300E00F920FB60F9211248F939F9310920501D4
S11300F01092040181E090E0909303018093020147
S11301009F918F910F900FBE0F901F9018951F9283
S11301100F920FB60F9211248F939F9381E090E07A
S113012090930101809300019F918F910F900FBED6
S11301300F901F9018951F920F920FB60F921124D3
S11301408F939F938091060190910701019690935C
S11301500701809306019F918F910F900FBE0F901E
S11301601F90189581E081BB12BA8FEF87BB12B83C
S113017080E783B9089589B7806789BF8AB78A629F
S11301808ABF08958EB584608EBD87B7846087BFAB
S1130190089510920701109206018FEF87BB38EC87
S11301A022E38091060190910701181619064CF478
S11301B0809106019091070104971CF421BF33BD7F
S11301C0F0CF809106019091070104974CF0809143
S11301D006019091070107971CF431BF23BDE1CFBD
S11301E080910601909107010797DCF217BA8FE717
S11301F081BF83BD089510920701109206018FEF0D
S113020087BB3EEF21E0809106019091070118160B
S113021019064CF4809106019091070104971CF48F
S113022031BF23BDF0CF809106019091070105975E
S113023054F317BA17BA8FE781BF83BD089592DFCD
S113024061D099DF9FDF789440E050E020E030E017
S1130250D1E0C0E009C040E050E02D2F3C2F04C0A5
S11302604D2F5C2F20E030E0809104019091050136
S1130270019731F48091000190910101892B59F388
S11302808091020190910301019731F48091000162
S113029090910101892B21F321303105C1F4809122
S11302A0000190910101019791F473DF109205010F
S11302B010920401109203011092020110920101A4
S11302C01092000140E050E020E030E0CDCF41301A
S11302D0510551F68091000190910101019721F699
S11302E08ADF10920501109204011092030110920A
S11302F00201109201011092000140E050E020E060
S113030030E0B2CF83B7866083BF83B7886483BF8E
S113031083B7806283BF85B5846085BD85B58864F5
S111032085BD85B5806285BD0895F894FFCF34
S9030000FC
