:1000000045C0000061C000005FC000005DC000008E
:100010005BC0000059C0000057C0000055C0000080
:1000200053C0000051C000005BC200004DC0000082
:100030004DC2000049C0000047C0000045C000009C
:1000400062C1000041C000000C94DD080C94AE08B1
:100050003BC0000039C0000037C0000035C00000C0
:1000600033C0000031C000002FC000002DC00000D0
:100070002BC0000029C00000DFC70000A9C7000096
:1000800023C0000021C000001FC0000011241FBEBB
:10009000CFEFD0E1DEBFCDBF12E0A0E0B1E0EEE6F1
:1000A000FCE100E00BBF02C007900D92A438B1073D
:1000B000D9F723E0A4E8B2E001C01D92A339B2074A
:1000C000E1F71DD60C94350E9BCF8FEF8093610026
:1000D00084B3806F84BB089583B7866083BF87B77E
:1000E000816487BF08957DD6F0DFF6CF0895CF9362
:1000F000DF93CDB7DEB72E970FB6F894DEBF0FBEF5
:10010000CDBF9AE0E2E2F1E0DE01119601900D929E
:100110009A95E1F790E89B8790E49C8790E29D8711
:1001200090E19E8795B3906F95BB95B3FE01E80F64
:10013000F11D83858095982395BBE1E0F0E0EC0FFD
:10014000FD1FE60FF11D80815BD62E960FB6F89449
:10015000DEBF0FBECDBFDF91CF91089580937000B9
:10016000089584EA80937400E4E7F0E080818823B6
:10017000ECF708958093730084E880937400E4E7BB
:10018000F0E080818823ECF70895CF93DF93D82F98
:10019000C62FE7DF8D2FEEDF8C2FECDF84E9809315
:1001A0007400DF91CF910895EF92FF920F931F9308
:1001B000CF93DF9300D000D0CDB7DEB7282F207FBC
:1001C00030E1839FC0011124922F9D6099832960A3
:1001D0002A83982F9D609B8389608C838E010F5F9B
:1001E0001F4F7E0185E0E80EF11CF80161918F013F
:1001F0008EE4CBDF0E151F05C1F70F900F900F9007
:100200000F90DF91CF911F910F91FF90EF90089584
:10021000EF92FF920F931F93CF93DF9300D000D004
:10022000CDB7DEB7282F207F30E1839FC001112496
:10023000922F9C60998328602A83982F9C609B83CF
:1002400088608C838E010F5F1F4F7E0185E0E80E72
:10025000F11CF80161918F018EE497DF0E151F05E7
:10026000C1F70F900F900F900F90DF91CF911F91DA
:100270000F91FF90EF90089580E197E26FDF2FEFED
:1002800080E792E0215080409040E1F700C00000FC
:1002900083E3BEDF82E3BCDF88E2BADF8CE0B8DF55
:1002A00086E0B6DF81E0B4DF8FE39CE90197F1F7E8
:1002B00000C0000008950F931F93CF93FC0180812D
:1002C000882351F08F01C0E06FDFCF5FF801EC0FA2
:1002D000F11D80818111F8CFCF911F910F91089569
:1002E00081706F7090E4899F600D1124862F805873
:1002F0008FCF0895CF93DF93EA01F2DFCE01DBDFEA
:10030000DF91CF9108951F920F920FB60F92112493
:100310000BB60F922F933F934F935F936F937F93FF
:100320008F939F93AF93BF93EF93FF9380918A0234
:10033000837001F540918802509189029A01ADECD9
:10034000BCEC0E941B0B9695879596958795969584
:1003500087959C01220F331F880F991F880F991FC3
:10036000880F991F820F931FBA01681B790B80E0D9
:10037000BEDE7DC080918A028370813039F5409164
:100380008802509189029A013695279536952795CE
:10039000ABE7B4E10E941B0B9695879564E6689FD6
:1003A0009001699F300D1124CA01821B930B9C019F
:1003B000ADECBCEC0E941B0B9695879596958795A6
:1003C00096958795682F81E092DE51C080918A02D0
:1003D0008370823081F540918802509189029A01A0
:1003E000369527953695279536952795A5ECB0E255
:1003F0000E941B0B929582958F7089279F70892789
:1004000068EE73E0869F9001879F300D969F300DB8
:100410001124CA01821B930B9C01369527953695B2
:100420002795ABE7B4E10E941B0B96958795682F43
:1004300082E05DDE1CC080918A0283708330B9F453
:100440002091880230918902369527953695279517
:1004500036952795A5ECB0E20E941B0B92958295EC
:100460008F7089279F708927682F83E040DE8091F5
:100470008A028F5F80938A0280918A02883C10F002
:1004800010928A02FF91EF91BF91AF919F918F914E
:100490007F916F915F914F913F912F910F900BBE84
:1004A0000F900FBE0F901F9018953E9A96B19760CF
:1004B00096B9379A359A97B1907E892B87B9369A33
:1004C0000895349BFECF84B195B108951F920F9289
:1004D0000FB60F9211240F900FBE0F901F9018951A
:1004E0001F920F920FB60F9211240F900FBE0F9014
:1004F0001F9018958091BF029091C0020A972CF42A
:10050000E2E6F0E08081806F8083E2E6F0E08081C7
:100510008F70808308952F923F924F925F926F92D7
:100520007F928F929F92AF92BF92CF92DF92EF9283
:10053000FF920F931F93CF93DF9380E0B6DFC1DF6D
:100540009093C0028093BF028CE0ECE2F1E0A9EE50
:10055000B2E001900D928A95E1F749EE52E060E039
:1005600080E0C8DE8091C0028F938091BF028F939C
:1005700088E391E09F938F9383E193E09F938F9320
:100580000E945A0B43E153E060E081E0B3DE8091CA
:1005900011031F928F9381E491E09F938F9381ECDD
:1005A00092E09F938F930E945A0B41EC52E067E0D8
:1005B00081E0A0DE45D48093110390E090938902FE
:1005C00080938802809112032DB73EB7245F3F4F7E
:1005D0000FB6F8943EBF0FBE2DBF8133C1F48EE637
:1005E00090E09BBD8ABD19BC18BC88E690E0909352
:1005F000870080938600109285001092840080E32B
:10060000809312038BE491E00E942A0B65C382332E
:10061000B1F41BBC1ABC19BC18BC84E690E09093E2
:10062000870080938600109285001092840080E3FA
:100630008093120381E591E00E942A0B4DC383331E
:10064000A9F484E690E09BBD8ABD19BC18BC109249
:10065000870010928600109285001092840080E33B
:10066000809312038AE591E0F5D736C3843399F479
:100670001BBC1ABC19BC18BC1092870010928600D3
:10068000109285001092840080E38093120382E62A
:1006900091E0E0D721C38533B9F41BBC1ABC8CE8C8
:1006A00090E099BD88BD109287001092860086E97F
:1006B00090E0909385008093840080E38093120300
:1006C0008AE691E0C7D708C38633B9F48FEF90E08C
:1006D0009BBD8ABD19BC18BC8BEF90E0909387003E
:1006E00080938600109285001092840080E38093AE
:1006F000120382E791E0AED7EFC28733A9F41BBCA7
:100700001ABC19BC18BC8FEF90E0909387008093BF
:100710008600109285001092840080E3809312037B
:1007200080E891E097D7D8C28833A9F48FEF90E0A2
:100730009BBD8ABD19BC18BC109287001092860020
:10074000109285001092840080E38093120384E964
:1007500091E080D7C1C28933A9F41BBC1ABC8FEFCA
:1007600090E099BD88BD109287001092860090930A
:1007700085008093840080E38093120387EA91E0F0
:1007800069D7AAC2833609F0A7C280E38093120317
:100790001BBC1ABC19BC18BC1092870010928600B2
:1007A00010928500109284008AEB91E053D7C19A91
:1007B000C09881E090E090938702809386020F2E8C
:1007C000F8E3EF2EF1E0FF2EF02D03E113E00F2E02
:1007D000F1E48F2EF1E09F2EF02DC1ECD2E00F2E30
:1007E000FEE62F2E312CF02D0F2EF6E8AF2EB12C79
:1007F000F02D0F2EF8E6CF2ED12CF02D0F2E412C00
:10080000F0EC5F2EF9E76F2EF4E47F2EF02D80E000
:100810004CDE57DE9093C0028093BF028CE0ECE286
:10082000F1E0A9EEB2E001900D928A95E1F749EE70
:1008300052E060E080E05EDD8091C0028F938091A5
:10084000BF028F93FF92EF921F930F9333D7A801AC
:1008500060E081E04FDD809111031F928F939F92A2
:100860008F92DF93CF9326D7AE0167E081E042DD20
:10087000E7D28093110390E09093890280938802DD
:1008800039DE3BBC2ABC19BC18BCF501D182C08240
:10089000E4E8F0E011821082D9D42DB73EB7245F8E
:1008A0003F4F0FB6F8943EBF0FBE2DBF892BE1F02E
:1008B0003CD4809312038336B9F430E330931203AF
:1008C00083ED91E0C7D61092870210928602C09AFB
:1008D000C1981BBC1ABC19BC18BCF501118210824E
:1008E000E4E8F0E011821082809111038B3008F06F
:1008F000ECC18091840290918502009709F043C079
:1009000024E630E03BBD2ABD19BC18BCF5011182BC
:100910001082E4E8F0E011821082809184029091CC
:10092000850201969093850280938402FFEF23ED68
:1009300030E3F15020403040E1F700C0000080D2A9
:100940008093110340921E0150921F01609220017A
:100950007092210140921A0150921B0160921C0179
:1009600070921D0140921601509217016092180179
:100970007092190140921201509213016092140179
:1009800070921501A2C18130910509F043C084E63F
:1009900090E09BBD8ABD19BC18BCF5011182108284
:1009A000E4E8F0E011821082809184029091850247
:1009B00001969093850280938402FFEF23ED30E34C
:1009C000F15020403040E1F700C0000039D2809360
:1009D000110340921E0150921F01609220017092FB
:1009E000210140921A0150921B0160921C017092E9
:1009F0001D014092160150921701609218017092E9
:100A000019014092120150921301609214017092E8
:100A100015015BC18230910509F043C01BBC1ABCB3
:100A200019BC18BC24E630E0F50131832083E4E8EA
:100A3000F0E01182108280918402909185020196EB
:100A40009093850280938402FFEF23ED30E3F15011
:100A500020403040E1F700C00000F2D18093110344
:100A600040921E0150921F0160922001709221015C
:100A700040921A0150921B0160921C0170921D015C
:100A8000409216015092170160921801709219015C
:100A9000409212015092130160921401709215015C
:100AA00014C18330910509F043C084E690E09BBDFA
:100AB0008ABD19BC18BCF50111821082E4E8F0E08F
:100AC0001182108280918402909185020196909308
:100AD000850280938402FFEF23ED30E3F150204044
:100AE0003040E1F700C00000ABD180931103409289
:100AF0001E0150921F0160922001709221014092CC
:100B00001A0150921B0160921C0170921D014092CB
:100B100016015092170160921801709219014092CB
:100B20001201509213016092140170921501CDC010
:100B30008430910509F043C01BBC1ABC19BC18BC19
:100B400024E630E0F50131832083E4E8F0E011820F
:100B50001082809184029091850201969093850283
:100B600080938402FFEF23ED30E3F15020403040CA
:100B7000E1F700C0000064D18093110340921E0190
:100B800050921F01609220017092210140921A013F
:100B900050921B0160921C0170921D01409216013F
:100BA000509217016092180170921901409212013F
:100BB00050921301609214017092150186C0853025
:100BC000910509F043C01BBC1ABC19BC18BC24E633
:100BD00030E0F50131832083E4E8F0E011821082F7
:100BE0008091840290918502019690938502809372
:100BF0008402FFEF23ED30E3F15020403040E1F775
:100C000000C000001DD18093110340921E0150923C
:100C10001F01609220017092210140921A015092AE
:100C20001B0160921C0170921D01409216015092AE
:100C300017016092180170921901409212015092AE
:100C4000130160921401709215013FC00697E9F5F7
:100C500084E690E09BBD8ABD19BC18BCF5011182E9
:100C60001082E4E8F0E01182108210928502109266
:100C70008402FFEF23ED30E3F15020403040E1F7F4
:100C800000C00000DDD08093110340921E015092FD
:100C90001F01609220017092210140921A0150922E
:100CA0001B0160921C0170921D014092160150922E
:100CB000170160921801709219014092120150922E
:100CC0001301609214017092150180918602909137
:100CD0008702892B09F09BCDDF91CF911F910F9156
:100CE000FF90EF90DF90CF90BF90AF909F908F904C
:100CF0007F906F905F904F903F902F90089588E085
:100D000090E0E5D188E090E059D1789447D080E038
:100D1000CCDBB2DA94D0E7D98FEF87BB82B9E4E6B7
:100D2000F0E09081906190839081977F90839AB357
:100D30008ABB84B3806F84BBE1E6F0E08081806F82
:100D40008083C09AC19883B7846083BF1BBC1ABCE0
:100D500019BC18BC10928700109286001092850072
:100D600010928400EDE8F3E080E091E095838483C5
:100D7000938382839183808382EF91E06BD489E1B6
:100D800092E068D481E692E065D4B4DB5FD2892B2F
:100D900019F0CBD180931203BEDBF7CF8FB58068FB
:100DA0008FBD8FB580628FBD8FB581608FBD8EB5D1
:100DB00084608EBD8EB588608EBDEBE8F0E08081EA
:100DC000806880838081806280838081816080836D
:100DD000EAE8F0E08081846080838081886080839D
:100DE0000895D19AD09AD29AD998D898DA98089535
:100DF000D898D89AD8980895D998D99AD998089512
:100E00000F931F93CF93DF93C0E0D0E0082F10E043
:100E100098010C2E02C0220F331F0A94E2F727FF1D
:100E200002C0DA9A01C0DA98E3DF2196C830D10512
:100E300079F7E2DFDF91CF911F910F910895089527
:100E4000E5E6F0E080818F7E808325E02A95F1F74A
:100E5000000080818061808385E38A95F1F700003E
:100E600080818F7E80831DBC1CBCE3E6F0E006C061
:100E70008CB59DB5893E9D4F08F09EC0808183FF53
:100E8000F7CF1DBC1CBC8091630083FF07C0E3E665
:100E9000F0E08CB59DB5808183FDFBCF6CB57DB551
:100EA00080E090E0D7D220E034E244E759E460D318
:100EB00020E030E040E853E45BD320E034E244E754
:100EC0005BE434D220918B0230918C0221153105E4
:100ED00049F460931E0170931F0180932001909349
:100EE000210129C02130310549F460931A01709322
:100EF0001B0180931C0190931D011DC02230310500
:100F000049F4609316017093170180931801909330
:100F1000190111C02330310571F4609312017093EF
:100F2000130180931401909315018FEF9FEF90931D
:100F30008C0280938B0280918B0290918C0201969F
:100F400090938C0280938B0220911A0130911B01A7
:100F500040911C0150911D0160911E0170911F0173
:100F600080912001909121017DD120911601309135
:100F70001701409118015091190174D1209112016B
:100F80003091130140911401509115016BD120E073
:100F900030E040E85EE3ECD260930E0170930F0105
:100FA000809310019093110120E030E048E652E474
:100FB000BDD124D2862F089584EF0895EAE9F0E0A8
:100FC0009081986990831092980080939900089579
:100FD0001F920F920FB60F9211240BB60F928F93A0
:100FE0009F93EF93FF93E0918D02F0E0E35CFC4F61
:100FF000808180939C0080918D02833121F08091CB
:101000008D028F5F01C080E080938D0290918D02F0
:1010100080918E02981305C0EAE9F0E080818F7D0F
:101020008083FF91EF919F918F910F900BBE0F9056
:101030000FBE0F901F9018951F920F920FB60F9230
:1010400011240BB60F922F933F938F939F93EF939F
:10105000FF93CF93DF931F92CDB7DEB780919002BD
:1010600020918F0290E0019630E08217930741F0C3
:1010700080919002833141F480918F02811104C0EC
:1010800080919C00898313C0E0919002F0E08091F0
:101090009C00EF5AFC4F808380919002833121F0B5
:1010A000809190028F5F01C080E0809390020F904A
:1010B000DF91CF91FF91EF919F918F913F912F9170
:1010C0000F900BBE0F900FBE0F901F9018959AB106
:1010D00098699AB91092900089B908952091920266
:1010E0004091910230E02F5F3F4F50E024173507C9
:1010F000A9F390919202933121F490919102992356
:1011000069F3E0919202F0E0E758FC4F8083909100
:101110009202933121F0909192029F5F01C090E082
:1011200090939202559A90E0089590919402809144
:1011300093029817D1F3E0919302F0E0EB59FC4F42
:10114000808190919302933121F0909193029F5F5F
:1011500001C090E09093930290E008951F920F9247
:101160000FB60F9211240BB60F928F939F93EF93AC
:10117000FF93E0919102F0E0E758FC4F80818CB939
:1011800080919102833121F0809191028F5F01C0A3
:1011900080E0809391029091910280919202981345
:1011A00001C05598FF91EF919F918F910F900BBEC9
:1011B0000F900FBE0F901F9018951F920F920FB6B1
:1011C0000F9211240BB60F922F933F938F939F93FF
:1011D000EF93FF93CF93DF931F92CDB7DEB780914C
:1011E00094022091930290E0019630E082179307D9
:1011F00041F080919402833139F4809193028111FE
:1012000003C08CB1898312C0E0919402F0E08CB1EC
:10121000EB59FC4F808380919402833121F08091BF
:1012200094028F5F01C080E0809394020F90DF9161
:10123000CF91FF91EF919F918F913F912F910F90BF
:101240000BBE0F900FBE0F901F9018953091940217
:101250002091930281E090E0321302C080E090E0A0
:1012600008955058BB27AA270ED048C139D130F075
:101270003ED120F031F49F3F11F41EF42EC10EF444
:10128000E095E7FB24C1E92F4AD180F3BA17620742
:1012900073078407950718F071F49EF562C10EF488
:1012A000E0950B2EBA2FA02D0B01B90190010C0176
:1012B000CA01A0011124FF27591B99F0593F50F48E
:1012C000503E68F11A16F040A22F232F342F4427E6
:1012D000585FF3CF469537952795A795F0405395DE
:1012E000C9F77EF41F16BA0B620B730B840BBAF0AE
:1012F0009150A1F0FF0FBB1F661F771F881FC2F719
:101300000EC0BA0F621F731F841F48F4879577952C
:101310006795B795F7959E3F08F0B3CF9395880FE3
:1013200008F09927EE0F9795879508950CD0E6C0A1
:10133000DED040F0D5D030F021F45F3F19F0C7C0C7
:10134000511110C1CAC0EBD098F39923C9F35523AA
:10135000B1F3951B550BBB27AA27621773078407A8
:1013600038F09F5F5F4F220F331F441FAA1FA9F35E
:1013700033D00E2E3AF0E0E830D091505040E69550
:10138000001CCAF729D0FE2F27D0660F771F881FB1
:10139000BB1F261737074807AB07B0E809F0BB0BA0
:1013A000802DBF01FF2793585F4F2AF09E3F5105C4
:1013B00068F08DC0D7C05F3FECF3983EDCF38695B4
:1013C00077956795B795F7959F5FC9F7880F911D3A
:1013D0009695879597F90895E1E0660F771F881F26
:1013E000BB1F621773078407BA0720F0621B730BD9
:1013F000840BBA0BEE1F88F7E095089598D088F01B
:101400009F5790F0B92F9927B751A0F0D1F0660FF0
:10141000771F881F991F1AF0BA95C9F712C0B1300B
:1014200081F09FD0B1E008959CC0672F782F882766
:10143000B85F39F0B93FCCF3869577956795B3954A
:10144000D9F73EF490958095709561957F4F8F4FB9
:101450009F4F0895E89409C097FB3EF490958095BE
:10146000709561957F4F8F4F9F4F9923A9F0F92F6A
:1014700096E9BB279395F695879577956795B795E8
:10148000F111F8CFFAF4BB0F11F460FF1BC06F5FCE
:101490007F4F8F4F9F4F16C0882311F096E911C0E0
:1014A000772321F09EE8872F762F05C0662371F001
:1014B00096E8862F70E060E02AF09A95660F771F15
:1014C000881FDAF7880F9695879597F9089597F909
:1014D0009F6780E870E060E008959FEF80EC0895DA
:1014E00000240A9416161706180609060895002403
:1014F0000A9412161306140605060895092E03947D
:10150000000C11F4882352F0BB0F40F4BF2B11F4F0
:1015100060FF04C06F5F7F4F8F4F9F4F089557FD4F
:101520009058440F551F59F05F3F71F04795880F51
:1015300097FB991F61F09F3F79F0879508951216E8
:1015400013061406551FF2CF4695F1DF08C0161694
:1015500017061806991FF1CF869571056105089445
:101560000895E894BB2766277727CB0197F908955C
:101570000BD0C4CFB5DF28F0BADF18F0952309F0FF
:10158000A6CFABCF1124EECFCADFA0F3959FD1F346
:10159000950F50E0551F629FF001729FBB27F00D21
:1015A000B11D639FAA27F00DB11DAA1F649F662776
:1015B000B00DA11D661F829F2227B00DA11D621FC5
:1015C000739FB00DA11D621F839FA00D611D221F7F
:1015D000749F3327A00D611D231F849F600D211D63
:1015E000822F762F6A2F11249F5750408AF0E1F006
:1015F00088234AF0EE0FFF1FBB1F661F771F881F4F
:1016000091505040A9F79E3F510570F060CFAACF8E
:101610005F3FECF3983EDCF3869577956795B79539
:10162000F795E7959F5FC1F7FE2B880F911D969563
:10163000879597F90895A29FB001B39FC001A39F1A
:10164000700D811D1124911DB29F700D811D1124FB
:10165000911D08950F931F93CF93DF93E0918F0314
:10166000F0919003238121FF1BC08C01D0E0C0E0EA
:10167000F80181918F0160918F0370919003DB01DC
:101680001896ED91FC911997882331F00995892BD3
:1016900079F3DFEFCFEFECCF8AE00995892B19F0D2
:1016A0008FEF9FEF02C08D2F9C2FDF91CF911F9165
:1016B0000F9108950F931F93CF93DF93CDB7DEB7AC
:1016C0002E970FB6F894DEBF0FBECDBF0D891E89D1
:1016D00086E08C831A8309838FEF9FE79E838D8337
:1016E000AE01475E5F4F6F89788DCE01019610D0B5
:1016F000EF81F885E00FF11F10822E960FB6F89457
:10170000DEBF0FBECDBFDF91CF911F910F91089526
:101710002F923F924F925F926F927F928F929F9201
:10172000AF92BF92CF92DF92EF92FF920F931F93EF
:10173000CF93DF93CDB7DEB72B970FB6F894DEBF0C
:101740000FBECDBF6C017B018A01FC01178216829E
:10175000838181FFBFC1CE0101963C01F6019381D7
:10176000F70193FD859193FF81917F01882309F40F
:10177000ADC1853239F493FD859193FF81917F014D
:10178000853221F4B60190E0D6D1E8CF912C212CFE
:10179000312CFFE1F315D8F08B3279F038F4803238
:1017A00079F08332A1F4232D20611DC08D3261F0C8
:1017B000803369F4232D216016C0832D8260382E7A
:1017C000E32DE4603E2E2AC0F32DF8601DC037FCE7
:1017D0002DC020ED280F2A3040F08E32B9F436FCAF
:1017E00075C1232D2064322E19C036FE06C08AE052
:1017F000989E200D1124922E11C0EAE02E9E200DFD
:101800001124222EF32DF0623F2E08C08C3621F4D5
:10181000832D8068382E02C0883641F4F70193FD8D
:10182000859193FF81917F018111B3CF982F9F7D87
:101830009554933028F40C5F1F4F9FE399830DC09C
:10184000833631F0833771F0833509F055C020C0FD
:10185000F801808189830E5F1F4F88248394912C27
:10186000530112C02801F2E04F0E511CF801A08074
:10187000B18036FE03C0692D70E002C06FEF7FEFCC
:10188000C5014ED14C018201F32DFF773F2E15C0CB
:10189000280122E0420E511CF801A080B18036FEE2
:1018A00003C0692D70E002C06FEF7FEFC5012DD13D
:1018B0004C01F32DF0683F2E820133FC19C0822DBC
:1018C00090E088169906A0F4B60180E290E033D14A
:1018D0002A94F5CFF50137FC859137FE81915F01A0
:1018E000B60190E028D121102A9421E0821A9108B3
:1018F0008114910479F7E1C0843611F0893639F505
:10190000F80137FE07C060817181828193810C5F8D
:101910001F4F08C060817181072E000C880B990B46
:101920000E5F1F4FF32DFF763F2E97FF09C0909556
:101930008095709561957F4F8F4F9F4FF0683F2E38
:101940002AE030E0A30133D1882E861844C08537C1
:1019500031F4232D2F7EB22E2AE030E025C0932DC6
:10196000997FB92E8F36C1F018F4883579F0AEC062
:10197000803719F0883721F0A9C0E92FE061BE2E29
:10198000B4FE0DC0FB2DF460BF2E09C034FE0AC0AA
:10199000292F2660B22E06C028E030E005C020E1E5
:1019A00030E002C020E132E0F801B7FE07C06081FC
:1019B0007181828193810C5F1F4F06C060817181AC
:1019C00080E090E00E5F1F4FA301F1D0882E8618B3
:1019D000FB2DFF773F2E36FE0DC0232D2E7FA22E2E
:1019E000891458F434FE0BC032FC09C0832D8E7E5E
:1019F000A82E05C0B82CA32C03C0B82C01C0B92C4C
:101A0000A4FE0FC0FE01E80DF11D8081803321F49A
:101A10009A2D997EA92E09C0A2FE06C0B394B39454
:101A200004C08A2D867809F0B394A3FC10C0A0FEF0
:101A300006C0B21480F4280C922C9B180DC0B2146E
:101A400058F4B60180E290E076D0B394F8CFB214A7
:101A500018F42B1802C0982C212CA4FE0FC0B6013C
:101A600080E390E068D0A2FE16C0A1FC03C088E726
:101A700090E002C088E590E0B6010CC08A2D86781F
:101A800051F0A1FE02C08BE201C080E2A7FC8DE212
:101A9000B60190E050D0891430F4B60180E390E0B4
:101AA0004AD09A94F8CF8A94F301E80DF11D808111
:101AB000B60190E040D08110F6CF222009F44ECE3E
:101AC000B60180E290E037D02A94F7CFF601868104
:101AD000978102C08FEF9FEF2B960FB6F894DEBF71
:101AE0000FBECDBFDF91CF911F910F91FF90EF906F
:101AF000DF90CF90BF90AF909F908F907F906F902E
:101B00005F904F903F902F900895FC010590615099
:101B100070400110D8F7809590958E0F9F1F089503
:101B2000FC016150704001900110D8F780959095AC
:101B30008E0F9F1F08950F931F93CF93DF93FB0189
:101B4000238121FD03C08FEF9FEF2CC022FF16C021
:101B500046815781248135814217530744F4A0817F
:101B6000B1819D012F5F3F4F318320838C9326816C
:101B700037812F5F3F4F3783268314C08B01EC01E1
:101B8000FB010084F185E02D0995892BE1F6D80150
:101B900016968D919C911797019617969C938E930C
:101BA0001697CE01DF91CF911F910F910895FA0101
:101BB000AA27283051F1203181F1E8946F936E7F8C
:101BC0006E5F7F4F8F4F9F4FAF4FB1E03ED0B4E07D
:101BD0003CD0670F781F891F9A1FA11D680F791FBE
:101BE0008A1F911DA11D6A0F711D811D911DA11DCF
:101BF00020D009F468943F912AE0269F11243019DF
:101C0000305D3193DEF6CF010895462F4770405D79
:101C10004193B3E00FD0C9F7F6CF462F4F70405D28
:101C20004A3318F0495D31FD4052419302D0A9F783
:101C3000EACFB4E0A6959795879577956795BA957D
:101C4000C9F700976105710508959B01AC010A2E43
:101C500006945795479537952795BA95C9F7620F1A
:0E1C6000731F841F951FA01D0895F894FFCFD9
:101C6E0000000003000000006E0895080000003C14
:101C7E001C4600C0794400C0794400C0794400C0BD
:101C8E0079443F065B4F666D7D277F674D616E75AC
:101C9E00616C204D6F6465004344533A25642020E7
:101CAE0000536F6E613A25642020000D0A474F0DD8
:101CBE00000D0A52494748540D000D0A4C45465432
:101CCE000D000D0A53544F500D000D0A4241434B67
:101CDE000D000D0A46554C4C2053504545440D0001
:101CEE000D0A46554C4C20535045454420526967C9
:101CFE0068740D000D0A46554C4C20535045454412
:101D0E00204C6566740D000D0A46554C4C20535000
:101D1E00454544204241434B0D000D0A53656C6608
:101D2E002044726976696E67204D6F64652E2E2E83
:101D3E00310D000D0A41626F72742053656C66207E
:101D4E0044726976696E67204D6F64652E2E2E3251
:101D5E000D00312E474F0D0A322E52494748540D71
:101D6E000A332E4C4546540D0A342E53544F500D03
:101D7E000A352E4241434B0D00362E46554C4C2013
:101D8E0053504545440D0A372E46554C4C20535062
:101D9E004545442052494748540D0A382E46554C65
:101DAE004C205350454544204C4546540D0A392E7F
:101DBE0046554C4C205350454544204241434B0D13
:101DCE0000612E53656C662044726976696E6720D9
:101DDE004D6F64650D0A53656C656374204E756DA9
:041DEE003E0D0000A6
:00000001FF
