S01100004C65645F666C6173682E7372656391
S113000045C0000053C0000051C000004FC00000B4
S11300104DC000004BC0000049C0000047C00000B4
S113002045C0000043C0000041C000003FC00000C4
S11300303DC000003BC0000039C0000038C00000D3
S113004035C0000033C0000031C000002FC00000E4
S11300502DC000002BC0000029C0000027C00000F4
S113006025C0000023C0000021C000001FC0000004
S11300701DC000001BC0000019C0000017C0000014
S113008015C0000013C0000011C0000011241FBEE1
S1130090CFEFD0E1DEBFCDBF21E0A0E0B1E001C0F1
S11300A01D92A430B207E1F71AD046C0A9CF1F921F
S11300B00F920FB60F9211248F939F938091020198
S11300C0909103010196909303018093020112BE63
S11300D09F918F910F900FBE0F901F9018958FEFE7
S11300E081BB12BA83B7876083BF80E881BF87B7BB
S11300F0826087BF789451E040E06FEF8091020105
S1130100909103018697D1F7109203011092020196
S11301108091000190910101352F242F009711F057
S113012030E020E03093000120930101892B11F489
S10F013062BBE4CF12BAE2CFF894FFCF18
S9030000FC
