S00F00006C65645F696E742E7372656336
S113000045C0000054C0000051C000004FC00000B3
S11300104DC000004BC0000049C0000047C00000B4
S113002045C0000043C0000041C000003FC00000C4
S11300303DC000003BC0000039C0000037C00000D4
S113004035C0000033C0000031C000002FC00000E4
S11300502DC000002BC0000029C0000027C00000F4
S113006025C0000023C0000021C000001FC0000004
S11300701DC000001BC0000019C0000017C0000014
S113008015C0000013C0000011C0000011241FBEE1
S1130090CFEFD0E1DEBFCDBF21E0A0E0B1E001C0F1
S11300A01D92A230B207E1F73CD063C0A9CF1F92E2
S11300B00F920FB60F9211242F938F939F938091D9
S11300C0000190910101019739F48FEF9FEF909314
S11300D00101809300010CC0809100019091010105
S11300E0019631F481E090E0909301018093000146
S11300F09F918F912F910F900FBE0F901F90189585
S11301008FEF87BB18BA11BA81E082BB089589B713
S1130110836089BFEAE6F0E080818360808378941D
S11301200895EEDFF4DF80E090E041E050E02091BC
S1130130000130910101820F931F883091052CF446
S113014099232CF487E090E002C080E090E09A01CB
S1130150082E02C0220F331F0A94E2F728BB2FEFA8
S113016039E668E1215030406040E1F700C000000A
S1090170DECFF894FFCF7E
S9030000FC
