:1000000045C0000053C0000051C000004FC00000B8
:100010004DC000004CC000005BC0000047C00000A5
:1000200045C0000043C0000041C000003FC00000C8
:100030003DC000003BC0000039C000005DC00000B2
:1000400035C0000033C0000031C000002FC00000E8
:100050002DC000002BC0000029C0000027C00000F8
:1000600025C0000023C0000021C000001FC0000008
:100070001DC000001BC0000019C0000017C0000018
:1000800015C0000013C0000011C0000011241FBEE5
:10009000CFEFD0E1DEBFCDBF21E0A0E0B1E001C0F5
:1000A0001D92A430B207E1F766D0A0C0A9CF1F927D
:1000B0000F920FB60F9211248F938FEF81BF83BDE4
:1000C0001BBC1ABC8F910F900FBE0F901F901895FC
:1000D0001F920F920FB60F9211248F939F9311BE10
:1000E00013BC8FEF90E09BBD8ABD9F918F910F90C5
:1000F0000FBE0F901F9018951F920F920FB60F9280
:1001000011242F933F938F939F938091020190919D
:1001100003010196909303018093020112BE809126
:1001200002019091030180349105E1F410920301E2
:1001300010920201209100013091010181E090E0D4
:10014000232B11F080E090E0909301018093000157
:100150008091000190910101892B19F081E082BB0F
:1001600001C012BA9F918F913F912F910F900FBEB6
:100170000F901F90189581E081BB12BA8FEF87BB5B
:1001800012B880E383B983B7846083BF83B7886480
:1001900083BF83B7806283BF85B5836085BD85B526
:1001A000886485BD85B5806385BD8FB581608FBD51
:1001B0008FB580688FBD8FB580638FBD8EB584602D
:1001C0008EBD89B7806189BF89B7806289BF8AB7D0
:1001D00082608ABF8AB788608ABF8FE781BF83BD8C
:1001E00084EF91E09BBD8ABD7894FFCFF894FFCF58
:00000001FF
