S01000006578635F74696D652E73726563C6
S113000045C0000053C0000051C000004FC00000B4
S11300104DC000004BC0000049C0000047C00000B4
S113002045C0000043C0000041C000003FC00000C4
S11300303DC000003BC0000039C0000037C00000D4
S113004036C0000033C0000031C000002FC00000E3
S11300502DC000002BC0000029C0000027C00000F4
S113006025C0000023C0000021C000001FC0000004
S11300701DC000001BC0000019C0000017C0000014
S113008015C0000013C0000011C0000011241FBEE1
S1130090CFEFD0E1DEBFCDBF21E0A0E0B1E001C0F1
S11300A01D92A630B207E1F761D0AEC0A9CF1F926E
S11300B00F920FB60F9211240F931F932F933F9318
S11300C04F935F936F937F938F939F93AF93BF935C
S11300D00091020110910301209104013091050166
S11300E080910001909101010F5F1F4F2F4F3F4FEF
S11300F0489668EE73E061D0AC01CB01770FAA0B90
S1130100BB0B080F191F2A1F3B1F009302011093FA
S1130110030120930401309305015093010140939E
S11301200001BF91AF919F918F917F916F915F91EA
S11301304F913F912F911F910F910F900FBE0F90F0
S11301401F9018952FB7F8946091020170910301E4
S113015080910401909105012FBF089583B78460B5
S113016083BF87B7816087BF78940895F7DF81E004
S113017087BB18BAE7DF6B017C01C0E0E3DF8B01CA
S11301809C010C191D092E093F09093E1340210544
S11301903105A0F32C2F30E02F5F3F4F21703078D2
S11301A0332334F4215031092E6F3F6F2F5F3F4FBB
S11301B0C22F28BB6B017C01E1CF97FB072E16F4FD
S11301C0009406D077FD08D00BD007FC05D03EF490
S11301D0909581959F4F0895709561957F4F0895EF
S11301E0AA1BBB1B51E107C0AA1FBB1FA617B70759
S11301F010F0A61BB70B881F991F5A95A9F7809575
S10F02009095BC01CD010895F894FFCF47
S9030000FC
