:1000000045C0000060C000005EC000005CC0000091
:100010005AC0000058C0000056C0000054C0000084
:1000200052C0000050C000004EC000004CC0000094
:100030004AC0000048C0000046C0000045C00000A3
:1000400042C0000040C000006FC100003EC100007F
:100050003AC0000038C0000036C0000034C00000C4
:1000600032C0000030C000002EC000002CC00000D4
:100070002AC0000028C0000026C0000024C00000E4
:1000800022C0000020C000001EC0000011241FBEBE
:10009000CFEFD0E1DEBFCDBF11E0A0E0B1E0E4EBF7
:1000A000F9E000E00BBF02C007900D92AE36B10739
:1000B000D9F721E0AEE6B1E001C01D92A63AB20741
:1000C000E1F757D075C49CCF1F920F920FB60F92D5
:1000D00011240BB60F928F939F93EF93FF93809110
:1000E000700190917101019690937101809370015C
:1000F00012BE80917001909171010497F9F41092F1
:10010000710110927001E0917201F0917301E05061
:10011000FF4F808185BB80917201909173010196A0
:100120009093730180937201809172019091730199
:10013000099724F01092730110927201FF91EF91D0
:100140009F918F910F900BBE0F900FBE0F901F903D
:10015000189583B7876083BF83B7806283BF83B7F7
:10016000886083BF87B7826087BF87B7816087BF9A
:100170000895EFDF87E690E061D0E0EAF1E088E003
:1001800091E09583848393838283918380837894A1
:1001900086E191E030D18FEF84BB15BA8FE081BF4B
:1001A000E12CF12C0F2EF9E2CF2EF1E0DF2EF02D15
:1001B00003E411E0C5E5D1E080916E0190916F01FB
:1001C000019690936F0180936E0180916E019091E2
:1001D0006F0180329E44B9F410926F0110926E014B
:1001E0008FEFE81AF80A9AE0E916F10461F481B792
:1001F0001F928F93DF92CF92EBD00F900F900F90C2
:100200000F90E12CF12CD9D0892BB1F245D080533D
:1002100081BF81B71F928F931F930F93D9D081B75E
:100220001F928F93DF93CF93D3D08DB79EB708964D
:100230000FB6F8949EBF0FBE8DBFBECF9AB198691E
:100240009AB91092900089B9089520917501409152
:10025000740130E02F5F3F4F50E024173507A9F3BA
:1002600090917501933121F490917401992369F370
:10027000E0917501F0E0E457FE4F808390917501A5
:10028000933121F0909175019F5F01C090E09093B0
:100290007501559A90E008959091770180917601CB
:1002A0009817D1F3E0917601F0E0E858FE4F808195
:1002B00090917601933121F0909176019F5F01C07A
:1002C00090E09093760190E008951F920F920FB600
:1002D0000F9211240BB60F928F939F93EF93FF937E
:1002E000E0917401F0E0E457FE4F80818CB9809179
:1002F0007401833121F0809174018F5F01C080E02F
:10030000809374019091740180917501981301C0DC
:100310005598FF91EF919F918F910F900BBE0F9089
:100320000FBE0F901F9018951F920F920FB60F924D
:1003300011240BB60F922F933F938F939F93EF93BC
:10034000FF93CF93DF931F92CDB7DEB780917701F4
:100350002091760190E0019630E08217930741F0FA
:1003600080917701833139F480917601811103C046
:100370008CB1898312C0E0917701F0E08CB1E8582C
:10038000FE4F808380917701833121F08091770146
:100390008F5F01C080E0809377010F90DF91CF9154
:1003A000FF91EF919F918F913F912F910F900BBEF5
:1003B0000F900FBE0F901F901895309177012091EC
:1003C000760181E090E0321302C080E090E0089571
:1003D000CF93DF93CDB7DEB7AE014B5F5F4FFA012E
:1003E00061917191AF018091A2019091A30133D0ED
:1003F000DF91CF9108950F931F93CF93DF93E091F7
:10040000A201F091A301238121FF1BC08C01D0E048
:10041000C0E0F80181918F016091A2017091A30168
:10042000DB011896ED91FC911997882331F009951D
:10043000892B79F3DFEFCFEFECCF8AE00995892B99
:1004400019F08FEF9FEF02C08D2F9C2FDF91CF917E
:100450001F910F9108952F923F924F925F926F924A
:100460007F928F929F92AF92BF92CF92DF92EF9244
:10047000FF920F931F93CF93DF93CDB7DEB72B97E8
:100480000FB6F894DEBF0FBECDBF6C017B018A01B1
:10049000FC0117821682838181FFBFC1CE010196C4
:1004A0003C01F6019381F70193FD859193FF8191C2
:1004B0007F01882309F4ADC1853239F493FD85911C
:1004C00093FF81917F01853221F4B60190E0D6D16E
:1004D000E8CF912C212C312CFFE1F315D8F08B3291
:1004E00079F038F4803279F08332A1F4232D206141
:1004F0001DC08D3261F0803369F4232D216016C058
:10050000832D8260382EE32DE4603E2E2AC0F32D29
:10051000F8601DC037FC2DC020ED280F2A3040F0B8
:100520008E32B9F436FC75C1232D2064322E19C0E9
:1005300036FE06C08AE0989E200D1124922E11C02E
:10054000EAE02E9E200D1124222EF32DF0623F2E84
:1005500008C08C3621F4832D8068382E02C088367E
:1005600041F4F70193FD859193FF81917F01811102
:10057000B3CF982F9F7D9554933028F40C5F1F4F75
:100580009FE399830DC0833631F0833771F0833553
:1005900009F055C020C0F801808189830E5F1F4F8C
:1005A00088248394912C530112C02801F2E04F0E4D
:1005B000511CF801A080B18036FE03C0692D70E0A7
:1005C00002C06FEF7FEFC5014ED14C018201F32DC8
:1005D000FF773F2E15C0280122E0420E511CF80182
:1005E000A080B18036FE03C0692D70E002C06FEFBD
:1005F0007FEFC5012DD14C01F32DF0683F2E820114
:1006000033FC19C0822D90E088169906A0F4B6013B
:1006100080E290E033D12A94F5CFF50137FC859143
:1006200037FE81915F01B60190E028D121102A9414
:1006300021E0821A91088114910479F7E1C084368F
:1006400011F0893639F5F80137FE07C060817181F4
:10065000828193810C5F1F4F08C060817181072EDA
:10066000000C880B990B0E5F1F4FF32DFF763F2E6A
:1006700097FF09C090958095709561957F4F8F4F3A
:100680009F4FF0683F2E2AE030E0A30133D1882E3F
:10069000861844C0853731F4232D2F7EB22E2AE0F0
:1006A00030E025C0932D997FB92E8F36C1F018F414
:1006B000883579F0AEC0803719F0883721F0A9C0AD
:1006C000E92FE061BE2EB4FE0DC0FB2DF460BF2EFD
:1006D00009C034FE0AC0292F2660B22E06C028E0C9
:1006E00030E005C020E130E002C020E132E0F80156
:1006F000B7FE07C060817181828193810C5F1F4FBB
:1007000006C06081718180E090E00E5F1F4FA30101
:10071000F1D0882E8618FB2DFF773F2E36FE0DC0B8
:10072000232D2E7FA22E891458F434FE0BC032FCE8
:1007300009C0832D8E7EA82E05C0B82CA32C03C023
:10074000B82C01C0B92CA4FE0FC0FE01E80DF11DAC
:100750008081803321F49A2D997EA92E09C0A2FEB2
:1007600006C0B394B39404C08A2D867809F0B3947C
:10077000A3FC10C0A0FE06C0B21480F4280C922C7A
:100780009B180DC0B21458F4B60180E290E076D008
:10079000B394F8CFB21418F42B1802C0982C212C63
:1007A000A4FE0FC0B60180E390E068D0A2FE16C0A0
:1007B000A1FC03C088E790E002C088E590E0B601A4
:1007C0000CC08A2D867851F0A1FE02C08BE201C0D8
:1007D00080E2A7FC8DE2B60190E050D0891430F49D
:1007E000B60180E390E04AD09A94F8CF8A94F3015E
:1007F000E80DF11D8081B60190E040D08110F6CF68
:10080000222009F44ECEB60180E290E037D02A943F
:10081000F7CFF6018681978102C08FEF9FEF2B966D
:100820000FB6F894DEBF0FBECDBFDF91CF911F9101
:100830000F91FF90EF90DF90CF90BF90AF909F907F
:100840008F907F906F905F904F903F902F90089582
:10085000FC010590615070400110D8F7809590958B
:100860008E0F9F1F0895FC01615070400190011090
:10087000D8F7809590958E0F9F1F08950F931F9323
:10088000CF93DF93FB01238121FD03C08FEF9FEF07
:100890002CC022FF16C04681578124813581421722
:1008A000530744F4A081B1819D012F5F3F4F3183F5
:1008B00020838C93268137812F5F3F4F3783268398
:1008C00014C08B01EC01FB010084F185E02D09953A
:1008D000892BE1F6D80116968D919C911797019678
:1008E00017969C938E931697CE01DF91CF911F910F
:1008F0000F910895FA01AA27283051F1203181F192
:10090000E8946F936E7F6E5F7F4F8F4F9F4FAF4F17
:10091000B1E03ED0B4E03CD0670F781F891F9A1F2A
:10092000A11D680F791F8A1F911DA11D6A0F711DDE
:10093000811D911DA11D20D009F468943F912AE0EA
:10094000269F11243019305D3193DEF6CF010895D2
:10095000462F4770405D4193B3E00FD0C9F7F6CF03
:10096000462F4F70405D4A3318F0495D31FD4052CB
:10097000419302D0A9F7EACFB4E0A6959795879561
:1009800077956795BA95C9F7009761057105089540
:100990009B01AC010A2E06945795479537952795EC
:1009A000BA95C9F7620F731F841F951FA01D089584
:0409B000F894FFCFE9
:1009B40003060C0903060C090000000300000000F4
:1009C40025014C010000696E7075742056656C6FCA
:1009D400636974792E2E2E0D0043757272656E74E0
:1009E400204F4352302056616C7565203A202564AF
:1009F4000D0A00627566662076616C7565203D207F
:100A040025640D0A0020496E707574204F435230DE
:0E0A14002056616C7565203A2025640D0A009D
:00000001FF
