:1000000045C0000060C000005EC000005CC0000091
:100010005AC0000058C0000056C0000054C0000084
:1000200052C0000050C000004EC000004CC0000094
:100030004AC0000048C0000046C0000044C00000A4
:1000400061C1000040C000003EC000003CC0000094
:100050003AC0000038C0000036C0000034C00000C4
:1000600032C0000030C000002EC000002CC00000D4
:100070002AC0000028C0000026C0000024C00000E4
:1000800022C0000020C000001EC0000011241FBEBE
:10009000CFEFD0E1DEBFCDBF11E0A0E0B1E0E6E4FC
:1000A000FBE000E00BBF02C007900D92AC31B1073E
:1000B000D9F721E0ACE1B1E001C01D92AF31B20748
:1000C000E1F7ECD13EC59CCF8FEF8093610084B304
:1000D000806F84BB089583B7866083BF87B78160D4
:1000E00087BF089516D2F0DFF6CF0895CF93DF9340
:1000F000CDB7DEB72E970FB6F894DEBF0FBECDBFDB
:100100009AE0E0E0F1E0DE01119601900D929A95FF
:10011000E1F790E89B8790E49C8790E29D8790E1CF
:100120009E8795B3906F95BB95B3FE01E80FF11DC7
:1001300083858095982395BBE1E0F0E0EC0FFD1FEF
:10014000E60FF11D8081F4D12E960FB6F894DEBF34
:100150000FBECDBFDF91CF910895809370000895B9
:1001600084EA80937400E4E7F0E080818823ECF770
:1001700008958093730084E880937400E4E7F0E0CE
:1001800080818823ECF70895CF93DF93D82FC62F73
:10019000E7DF8D2FEEDF8C2FECDF84E98093740096
:1001A000DF91CF910895EF92FF920F931F93CF931A
:1001B000DF9300D000D0CDB7DEB7282F207F30E10D
:1001C000839FC0011124922F9D60998329602A8307
:1001D000982F9D609B8389608C838E010F5F1F4FDA
:1001E0007E0185E0E80EF11CF80161918F018EE43B
:1001F000CBDF0E151F05C1F70F900F900F900F90DA
:10020000DF91CF911F910F91FF90EF900895EF92A2
:10021000FF920F931F93CF93DF9300D000D0CDB701
:10022000DEB7282F207F30E1839FC0011124922F59
:100230009C60998328602A83982F9C609B838860A8
:100240008C838E010F5F1F4F7E0185E0E80EF11C4D
:10025000F80161918F018EE497DF0E151F05C1F73C
:100260000F900F900F900F90DF91CF911F910F91F2
:10027000FF90EF90089580E197E26FDF2FEF80E726
:1002800092E0215080409040E1F700C0000083E3FD
:10029000BEDF82E3BCDF88E2BADF8CE0B8DF86E055
:1002A000B6DF81E0B4DF8FE39CE90197F1F700C08E
:1002B000000008950F931F93CF93FC018081882342
:1002C00051F08F01C0E06FDFCF5FF801EC0FF11D3F
:1002D00080818111F8CFCF911F910F910895817086
:1002E0006F7090E4899F600D1124862F80588FCF06
:1002F0000895CF93DF93EA01F2DFCE01DBDFDF91D8
:10030000CF9108951F920F920FB60F9211240BB642
:100310000F922F933F934F935F936F937F938F939E
:100320009F93AF93BF93EF93FF9380911E018370D0
:10033000F9F440911C0150911D019A01ADECBCEC07
:1003400016D19695879596958795969587959C0154
:10035000220F331F880F991F880F991F880F991F2D
:10036000820F931FBA01681B790B80E0BFDE78C053
:1003700080911E018370813029F540911C015091BC
:100380001D019A013695279536952795ABE7B4E17F
:10039000EED09695879564E6689F9001699F300D31
:1003A0001124CA01821B930B9C01ADECBCECDFD085
:1003B000969587959695879596958795682F81E070
:1003C00095DE4EC080911E018370823071F54091A0
:1003D0001C0150911D019A01369527953695279558
:1003E00036952795A5ECB0E2C2D0929582958F7094
:1003F00089279F70892768EE73E0869F9001879F09
:10040000300D969F300D1124CA01821B930B9C0165
:100410003695279536952795ABE7B4E1A8D0969504
:100420008795682F82E062DE1BC080911E01837079
:100430008330B1F420911C0130911D013695279530
:100440003695279536952795A5ECB0E290D09295F4
:1004500082958F7089279F708927682F83E046DEF9
:1004600080911E018F5F80931E0180911E01883C48
:1004700010F010921E01FF91EF91BF91AF919F91EB
:100480008F917F916F915F914F913F912F910F903D
:100490000BBE0F900FBE0F901F901895CF93DF9358
:1004A000CDB7DEB764970FB6F894DEBF0FBECDBFF1
:1004B000E2DE18DE78944AE051E060E080E019DF87
:1004C00000E010E00F2EF6E1CF2EF1E0DF2EF02D50
:1004D000CE0101967C011F930F93DF92CF92FF9282
:1004E000EF9254D0A70160E081E003DF10931D017B
:1004F00000931C010F5F1F4F8FE39CE90197F1F7F9
:1005000000C000000F900F900F900F900F900F9071
:10051000E2CFD19AD09AD29AD998D898DA980895F9
:10052000D898D89AD8980895D998D99AD9980895EA
:100530000F931F93CF93DF93C0E0D0E0082F10E01C
:1005400098010C2E02C0220F331F0A94E2F727FFF6
:1005500002C0DA9A01C0DA98E3DF2196C830D105EB
:1005600079F7E2DFDF91CF911F910F910895A29F5C
:10057000B001B39FC001A39F700D811D1124911D77
:10058000B29F700D811D1124911D08950F931F932B
:10059000CF93DF93CDB7DEB72E970FB6F894DEBFBB
:1005A0000FBECDBF0D891E8986E08C831A83098317
:1005B0008FEF9FE79E838D83AE01475E5F4F6F890C
:1005C000788DCE01019610D0EF81F885E00FF11FF4
:1005D00010822E960FB6F894DEBF0FBECDBFDF910E
:1005E000CF911F910F9108952F923F924F925F925A
:1005F0006F927F928F929F92AF92BF92CF92DF9233
:10060000EF92FF920F931F93CF93DF93CDB7DEB797
:100610002B970FB6F894DEBF0FBECDBF6C017B01E8
:100620008A01FC0117821682838181FFBFC1CE013E
:1006300001963C01F6019381F70193FD859193FFAB
:1006400081917F01882309F4ADC1853239F493FD8E
:10065000859193FF81917F01853221F4B60190E06D
:10066000D6D1E8CF912C212C312CFFE1F315D8F015
:100670008B3279F038F4803279F08332A1F4232D73
:1006800020611DC08D3261F0803369F4232D21601B
:1006900016C0832D8260382EE32DE4603E2E2AC0E2
:1006A000F32DF8601DC037FC2DC020ED280F2A3037
:1006B00040F08E32B9F436FC75C1232D2064322E01
:1006C00019C036FE06C08AE0989E200D1124922E95
:1006D00011C0EAE02E9E200D1124222EF32DF0628F
:1006E0003F2E08C08C3621F4832D8068382E02C03E
:1006F000883641F4F70193FD859193FF81917F0145
:100700008111B3CF982F9F7D9554933028F40C5FBF
:100710001F4F9FE399830DC0833631F0833771F00B
:10072000833509F055C020C0F801808189830E5FB0
:100730001F4F88248394912C530112C02801F2E0AA
:100740004F0E511CF801A080B18036FE03C0692D08
:1007500070E002C06FEF7FEFC5014ED14C01820106
:10076000F32DFF773F2E15C0280122E0420E511CC9
:10077000F801A080B18036FE03C0692D70E002C090
:100780006FEF7FEFC5012DD14C01F32DF0683F2EA7
:10079000820133FC19C0822D90E088169906A0F4DE
:1007A000B60180E290E033D12A94F5CFF50137FC11
:1007B000859137FE81915F01B60190E028D121102B
:1007C0002A9421E0821A91088114910479F7E1C0FA
:1007D000843611F0893639F5F80137FE07C060819B
:1007E0007181828193810C5F1F4F08C0608171818C
:1007F000072E000C880B990B0E5F1F4FF32DFF7611
:100800003F2E97FF09C090958095709561957F4F19
:100810008F4F9F4FF0683F2E2AE030E0A30133D185
:10082000882E861844C0853731F4232D2F7EB22EB2
:100830002AE030E025C0932D997FB92E8F36C1F084
:1008400018F4883579F0AEC0803719F0883721F078
:10085000A9C0E92FE061BE2EB4FE0DC0FB2DF460EF
:10086000BF2E09C034FE0AC0292F2660B22E06C052
:1008700028E030E005C020E130E002C020E132E0B5
:10088000F801B7FE07C060817181828193810C5F9E
:100890001F4F06C06081718180E090E00E5F1F4FA6
:1008A000A301F1D0882E8618FB2DFF773F2E36FE50
:1008B0000DC0232D2E7FA22E891458F434FE0BC0B8
:1008C00032FC09C0832D8E7EA82E05C0B82CA32C27
:1008D00003C0B82C01C0B92CA4FE0FC0FE01E80D66
:1008E000F11D8081803321F49A2D997EA92E09C0B3
:1008F000A2FE06C0B394B39404C08A2D867809F092
:10090000B394A3FC10C0A0FE06C0B21480F4280C5F
:10091000922C9B180DC0B21458F4B60180E290E0FE
:1009200076D0B394F8CFB21418F42B1802C0982CD8
:10093000212CA4FE0FC0B60180E390E068D0A2FE97
:1009400016C0A1FC03C088E790E002C088E590E0F3
:10095000B6010CC08A2D867851F0A1FE02C08BE250
:1009600001C080E2A7FC8DE2B60190E050D089146E
:1009700030F4B60180E390E04AD09A94F8CF8A949C
:10098000F301E80DF11D8081B60190E040D08110A7
:10099000F6CF222009F44ECEB60180E290E037D0A7
:1009A0002A94F7CFF6018681978102C08FEF9FEFDF
:1009B0002B960FB6F894DEBF0FBECDBFDF91CF915F
:1009C0001F910F91FF90EF90DF90CF90BF90AF906D
:1009D0009F908F907F906F905F904F903F902F905F
:1009E0000895FC010590615070400110D8F7809582
:1009F00090958E0F9F1F0895FC01615070400190EB
:100A00000110D8F7809590958E0F9F1F08950F9332
:100A10001F93CF93DF93FB01238121FD03C08FEF51
:100A20009FEF2CC022FF16C046815781248135815B
:100A30004217530744F4A081B1819D012F5F3F4FBE
:100A4000318320838C93268137812F5F3F4F3783FB
:100A5000268314C08B01EC01FB010084F185E02D9D
:100A60000995892BE1F6D80116968D919C911797DF
:100A7000019617969C938E931697CE01DF91CF9196
:100A80001F910F910895FA01AA27283051F12031C2
:100A900081F1E8946F936E7F6E5F7F4F8F4F9F4F12
:100AA000AF4FB1E03ED0B4E03CD0670F781F891F54
:100AB0009A1FA11D680F791F8A1F911DA11D6A0F22
:100AC000711D811D911DA11D20D009F468943F91D5
:100AD0002AE0269F11243019305D3193DEF6CF01D4
:100AE0000895462F4770405D4193B3E00FD0C9F79A
:100AF000F6CF462F4F70405D4A3318F0495D31FD07
:100B00004052419302D0A9F7EACFB4E0A695979559
:100B1000879577956795BA95C9F70097610571052F
:100B200008959B01AC010A2E069457954795379579
:100B30002795BA95C9F7620F731F841F951FA01DD3
:060B40000895F894FFCFB8
:100B46003F065B4F666D7D277F6768656C6C6F201F
:0C0B5600776F726C64002530356400007D
:00000001FF
