S01000004144435F534F4E4F2E73726563AE
S113000045C0000060C000005EC000005CC000008D
S11300105AC0000058C0000056C0000054C0000080
S113002052C0000050C000004EC000004CC0000090
S11300304AC0000048C0000046C0000044C00000A0
S1130040FFC0000040C000003EC000003CC00000F3
S11300503AC0000038C0000036C0000034C00000C0
S113006032C0000030C000002EC000002CC00000D0
S11300702AC0000028C0000026C0000024C00000E0
S113008022C0000020C000001EC0000011241FBEBA
S1130090CFEFD0E1DEBFCDBF11E0A0E0B1E0E2EAF6
S11300A0F7E000E00BBF02C007900D92A632B10743
S11300B0D9F721E0A6E2B1E001C01D92A133B20755
S11300C0E1F730D16CC39CCFCF93DF93CDB7DEB7CC
S11300D02E970FB6F894DEBF0FBECDBF9AE0ECE1C9
S11300E0F1E0DE01119601900D929A95E1F790E806
S11300F09B8790E49C8790E29D8790E19E8795B3CF
S1130100906F95BB95B3FE01E80FF11D8385809533
S1130110982395BBE1E0F0E0EC0FFD1FE60FF11D25
S113012080818BBB2E960FB6F894DEBF0FBECDBF79
S1130130DF91CF91089580937000089584EA8093AD
S11301407400E4E7F0E080818823ECF7089580935D
S1130150730084E880937400E4E7F0E080818823EE
S1130160ECF70895CF93DF93D82FC62FE7DF8D2FB9
S1130170EEDF8C2FECDF84E980937400DF91CF9164
S11301800895EF92FF920F931F93CF93DF9300D0C4
S113019000D0CDB7DEB7282F207F30E1839FC00188
S11301A01124922F9C60998328602A83982F9C6045
S11301B09B8388608C838E010F5F1F4F7E0185E0D7
S11301C0E80EF11CF80161918F018EE4CBDF0E156E
S11301D01F05C1F70F900F900F900F90DF91CF91F3
S11301E01F910F91FF90EF90089580E197E2A3DFB4
S11301F02FEF80E792E0215080409040E1F700C06B
S1130200000083E3BEDF82E3BCDF88E2BADF8CE078
S1130210B8DF86E0B6DF81E0B4DF8FE39CE90197C5
S1130220F1F700C0000008953E9A96B1976096B920
S1130230379A359A97B1907E892B87B9369A089563
S11302401F920F920FB60F9211240BB60F922F9399
S11302503F934F935F936F937F938F939F93AF934A
S1130260BF93EF93FF9380912601837059F480919B
S1130270290190912A016AE070E06AD2682F80E037
S113028023DF32C0809126018370813069F480912C
S1130290290190912A0164E670E05AD26AE070E084
S11302A057D281E011DF20C0809126018370823013
S11302B069F48091290190912A0168EE73E048D293
S11302C064E670E045D282E0FFDE0EC08091260134
S11302D08370833049F48091290190912A0168EE5A
S11302E073E036D283E0F0DE809126018F5F809345
S11302F0260180912601883C10F010922601FF917E
S1130300EF91BF91AF919F918F917F916F915F9189
S11303104F913F912F910F900BBE0F900FBE0F90F6
S11303201F901895EBE2F1E08EE091E093838283D5
S113033080E091E09183808371D080E075DF55DFA8
S11303401ED08FEF87BB82B9E4E6F0E09081906124
S113035090839081977F90838ABB80EF84BB18BA87
S113036013B883B7846083BF87B7816087BF7894ED
S11303700AD090E090932A0180932901F9CF8EB599
S113038085608EBD0895E5E6F0E080818F7E8083F0
S113039085E08A95F1F7000080818061808395E390
S11303A09A95F1F7000080818F7E80831DBC1CBC70
S11303B0E3E6F0E005C02CB53DB5293E3D4F68F5B8
S11303C09081892F887093FFF6CF1DBC1CBC80914F
S11303D0630083FF07C0E3E6F0E08CB59DB5808140
S11303E083FDFBCF6CB57DB580E090E0C0D020E00C
S11303F034E244E759E449D120E030E040E854E4F1
S113040044D120E034E244E75BE41DD020E030E056
S113041048E652E418D07FD0862F089510929000B9
S11304208FEC89B9599AE5E9F0E080818660808390
S1130430549A539A08955D9BFECF8CB908955F9B9F
S1130440FECF8CB108950CD0E6C0DED040F0D5D0FC
S113045030F021F45F3F19F0C7C0511110C1CAC078
S1130460EBD098F39923C9F35523B1F3951B550B9E
S1130470BB27AA2762177307840738F09F5F5F4F73
S1130480220F331F441FAA1FA9F333D00E2E3AF0B4
S1130490E0E830D091505040E695001CCAF729D0CE
S11304A0FE2F27D0660F771F881FBB1F261737071D
S11304B04807AB07B0E809F0BB0B802DBF01FF274D
S11304C093585F4F2AF09E3F510568F08DC0D7C006
S11304D05F3FECF3983EDCF3869577956795B79587
S11304E0F7959F5FC9F7880F911D9695879597F9A2
S11304F00895E1E0660F771F881FBB1F621773071B
S11305008407BA0720F0621B730B840BBA0BEE1F2F
S113051088F7E095089598D088F09F5790F0B92F08
S11305209927B751A0F0D1F0660F771F881F991F44
S11305301AF0BA95C9F712C0B13081F09FD0B1E07A
S113054008959CC0672F782F8827B85F39F0B93F8A
S1130550CCF3869577956795B395D9F73EF4909546
S11305608095709561957F4F8F4F9F4F0895E894C4
S113057009C097FB3EF490958095709561957F4FE7
S11305808F4F9F4F9923A9F0F92F96E9BB27939595
S1130590F695879577956795B795F111F8CFFAF4A5
S11305A0BB0F11F460FF1BC06F5F7F4F8F4F9F4FD6
S11305B016C0882311F096E911C0772321F09EE834
S11305C0872F762F05C0662371F096E8862F70E09A
S11305D060E02AF09A95660F771F881FDAF7880F74
S11305E09695879597F9089597F99F6780E870E045
S11305F060E008959FEF80EC089500240A94161695
S1130600170618060906089500240A9412161306FC
S1130610140605060895092E0394000C11F488238A
S113062052F0BB0F40F4BF2B11F460FF04C06F5FA6
S11306307F4F8F4F9F4F089557FD9058440F551F7C
S113064059F05F3F71F04795880F97FB991F61F050
S11306509F3F79F087950895121613061406551FC7
S1130660F2CF4695F1DF08C0161617061806991F33
S1130670F1CF86957105610508940895E894BB2728
S113068066277727CB0197F908950BD0C4CFB5DF40
S113069028F0BADF18F0952309F0A6CFABCF1124C8
S11306A0EECFCADFA0F3959FD1F3950F50E0551F0D
S11306B0629FF001729FBB27F00DB11D639FAA27B3
S11306C0F00DB11DAA1F649F6627B00DA11D661F02
S11306D0829F2227B00DA11D621F739FB00DA11D23
S11306E0621F839FA00D611D221F749F3327A00DDD
S11306F0611D231F849F600D211D822F762F6A2F79
S113070011249F5750408AF0E1F088234AF0EE0FFD
S1130710FF1FBB1F661F771F881F91505040A9F70A
S11307209E3F510570F060CFAACF5F3FECF3983E37
S1130730DCF3869577956795B795F795E7959F5F71
S1130740C1F7FE2B880F911D9695879597F908950B
S113075097FB072E16F4009406D077FD08D00BD033
S113076007FC05D03EF4909581959F4F08957095B0
S113077061957F4F0895AA1BBB1B51E107C0AA1FB7
S1130780BB1FA617B70710F0A61BB70B881F991F2E
S11307905A95A9F780959095BC01CD010895F894D8
S10507A0FFCF85
S11307A2000000010000000000001F020000000021
S11307B20002000000001B02000000003F065B4F25
S10907C2666D7D277F67D0
S9030000FC
