:1000000045C0000060C000005EC000005CC0000091
:100010005AC0000058C0000056C0000054C0000084
:1000200052C0000050C000004EC000004CC0000094
:100030004AC0000048C0000046C0000045C00000A3
:1000400042C0000040C000003EC000003CC00000B4
:100050003AC0000038C0000036C0000034C00000C4
:1000600032C0000030C000002EC000002CC00000D4
:100070002AC0000028C0000026C0000024C00000E4
:1000800022C0000020C000001EC0000011241FBEBE
:10009000CFEFD0E1DEBFCDBF11E0A0E0B1E0EAE9F3
:1000A000F1E000E00BBF02C007900D92A230B10753
:1000B000D9F721E0A2E0B1E001C01D92A430B2075F
:1000C000E1F71AD068C09CCF1F920F920FB60F9223
:1000D00011248F939F9380910201909103010196C7
:1000E000909303018093020112BE9F918F910F9014
:1000F0000FBE0F901F9018958FEF81BB12BA83B778
:10010000876083BF80E881BF87B7826087BF7894AC
:1001100020E030E060E870E041E050E0E2E0F0E054
:1001200080910201909103018697D1F7109203010B
:10013000109202018091000190910101813091059E
:10014000A1F4CA01022E02C0880F991F0A94E2F797
:1001500082BB2F5F3F4F2830310511F7F09301012B
:10016000E093000120E030E0DBCF0297C9F6CB013D
:10017000022E02C0959587950A94E2F782BB2F5F05
:100180003F4F2830310561F6509301014093000143
:0A01900020E030E0C5CFF894FFCF67
:02019A00010062
:00000001FF
